:020000040800F2
:1000000000040020B9020008BB020008BB0200087F
:10001000BB020008BB020008BB020008BB020008CC
:10002000BB020008BB020008BB0200084115000823
:10003000BB020008BB020008BB020008BB020008AC
:10004000BB020008BB020008BB020008BB0200089C
:10005000BB020008BB020008BB020008BB0200088C
:10006000BB020008BB020008BB020008BB0200087C
:10007000BB020008BB020008BB020008BB0200086C
:10008000BB020008BB020008BB020008BB0200085C
:10009000BB020008BB020008BB020008BB0200084C
:1000A000BB020008BB020008BB020008BB0200083C
:1000B000211A0008BB020008BB020008BB020008AE
:1000C000BB020008BB020008BB020008BB0200081C
:1000D000BB020008BB020008BB020008BB0200080C
:1000E000BB020008BB020008BB020008BB020008FC
:1000F000BB020008BB020008BB020008BB020008EC
:10010000BB020008BB020008BB020008BB020008DB
:10011000BB020008BB020008BB020008BB020008CB
:10012000BB020008BB020008BB020008BB020008BB
:10013000BB020008BB020008BB020008BB020008AB
:10014000BB020008BB020008BB020008BB0200089B
:10015000BB020008BB020008BB02000861180008CF
:10016000BB020008BB020008BB020008BB0200087B
:10017000BB020008BB020008BB020008BB0200086B
:10018000BB020008BB020008BB020008BB0200085B
:10019000BB020008BB020008BB020008BB0200084B
:1001A000BB020008BB020008BB020008BB0200083B
:1001B000BB020008BB020008BB020008BB0200082B
:1001C000BB020008BB020008BB020008BB0200081B
:1001D000BB020008BB020008BB020008BB0200080B
:1001E00072B6274880F30888264880F30988264895
:1001F0004EF60851CEF200010860022080F3148808
:10020000BFF36F8F01F0ACFC01F0F2F94FF0553005
:100210001E491B4A91423CBF41F8040BFAE71C49B6
:10022000184A91423CBF41F8040BFAE719491A4AAF
:100230001A4B9A423EBF51F8040B42F8040BF8E700
:1002400000201749174A91423CBF41F8040BFAE7D6
:1002500001F03EFC01F07CFC134C144DAC4203DA7F
:1002600054F8041B8847F9E700F07AFE104C114D52
:10027000AC4203DA54F8041B8847F9E701F060BC8C
:1002800000040020000800200000000800000020FA
:1002900000040020D41C00080008002000080020F2
:1002A000000800203C0E0020E0010008E0010008EA
:1002B000E0010008E001000892E700F000F8FEE726
:1002C0002DE9F04FC1F80CD0C3689D46BDE8F08F12
:1002D000002383F311882846A047002001F040F94D
:1002E000FEE701F065F900DFFEE70000844641EA21
:1002F000000313F003036DD1403A41D351F8043B9E
:1003000040F8043B51F8043B40F8043B51F8043BEF
:1003100040F8043B51F8043B40F8043B51F8043BDF
:1003200040F8043B51F8043B40F8043B51F8043BCF
:1003300040F8043B51F8043B40F8043B51F8043BBF
:1003400040F8043B51F8043B40F8043B51F8043BAF
:1003500040F8043B51F8043B40F8043B51F8043B9F
:1003600040F8043B51F8043B40F8043B51F8043B8F
:1003700040F8043B51F8043B40F8043B403ABDD2FE
:10038000303211D351F8043B40F8043B51F8043BA0
:1003900040F8043B51F8043B40F8043B51F8043B5F
:1003A00040F8043B103AEDD20C3205D351F8043B2F
:1003B00040F8043B043AF9D2043208D0D2071CBFFB
:1003C00011F8013B00F8013B01D30B880380604624
:1003D000704700BF082A13D38B078DD010F003039A
:1003E0008AD0C3F10403D21ADB071CBF11F8013B0A
:1003F00000F8013B80D331F8023B20F8023B7BE759
:10040000043AD9D3013A11F8013B00F8013BF9D283
:100410000B7803704B7843708B788370604670471D
:100420002DE9F0470021214C02254FF008084FF03C
:10043000010E4FF0030C0F270DE0266A06EA0909AA
:1004400049EA02022262226813402B4323604008DB
:1004500029D0AD00013101F0070292004B0007FAEC
:1004600002F90CFA03F310F0010F0EFA01F66FEA2D
:10047000030308FA02F26FEA0909E8D0D4F804A0ED
:100480002AEA06066660A6681E40A660E668072996
:1004900006EA0306E660D0D9666A06EA090949EA6F
:1004A00002026262CFE7BDE8F08700BF00080240A9
:1004B00030B4202383F311880B4CD4E90035494232
:1004C000281A0840821A9A4207D3954205D36260DF
:1004D000002383F3118830BC70470020002383F38E
:1004E000118830BC704700BF180A002000000000CF
:1004F000024AD36843F0C003D36070470014014040
:10050000202383F311880D4B5B6813F4006302D141
:1005100083F311887047EFF30983203B4FF080721B
:10052000DA6183F30988064A1168926989689268DA
:1005300091428CBF034A044A9A61704700ED00E083
:100540007C080020E3020008E6020008000000002A
:10055000084B10B4D3E900424942101A0840A042A7
:1005600004D3824202D3586010BC7047002010BCF4
:10057000704700BF180A00200000000000000000C3
:100580000E4B0F4A5B68C168F0B48468566F4268CE
:100590001B1BD0E904459B1BE61845F1000793425D
:1005A000026888BF436001319342C0E90467C0E933
:1005B000023138BF0360F0BC704700BF001000E09C
:1005C0007C08002000000000000000000000000087
:1005D000014B5B6883607047001000E00000000082
:1005E000202383F3118890F82030072B0ED8DFE802
:1005F00003F0280D0D2408040D08426A93680133A6
:100600009360D0E900231A600268536010B400229E
:100610004FF0FF3481680D4B446280F820201B6846
:100620009A688A42FBD25A680021C0E90032106001
:10063000586081F3118810BC7047436A00221A6029
:10064000E4E7002383F31188704700BF7C08002093
:1006500001460022074B806881F820201B689A68B9
:100660008242FBD25A680846C1E9003211605960E3
:10067000704700BF7C080020000000000000000060
:10068000F8B5164F57F8044FBC4220D00546002657
:1006900004E00B2A1CD02468BC4218D0E3682B432A
:1006A000E36015B123691D42F5D0D4E90103416B24
:1006B00090F820200B430A2A4363EAD1426A13428E
:1006C000E9D04662FFF7C4FF2468BC42E6D1F8BD1A
:1006D000426A32EA0303DED1F3E700BF00080020DC
:1006E000FEE700BF00000000000000000000000066
:1006F0000020704700000000000000000000000023
:10070000084B99691A6810B481F8200010681860C5
:100710000124436082F82040104610BC9A61FFF724
:10072000CFBD00BF7C0800200000000000000000DA
:10073000F0B54B1C87B04CD0414C2546022955F8EA
:100740001C2FA36905934FF0804C074638BF022148
:100750003C48DCF824300490AA425BD0A66A90683A
:100760009B1B59182FD31268091A9068814204D92B
:100770001268091A90688842FAD35368029301AE4E
:1007800001921E60566003919368591A4FF0FF332F
:10079000916063623846FFF7B3FF049B7BB1E26967
:1007A000019BB2421CD0029A1360019B0021AB4214
:1007B0005A60049103D09A6803990A449A60A36925
:1007C000586A07B0F0BD8142D0D20E44CCF83460F4
:1007D000CCE71B4CFFF794FFA369586A07B0F0BD44
:1007E0000022AB42E3615D60049224D09A680398D2
:1007F000A16A02444FF080409A60436A5B1A9A42B1
:10080000DDD9D01A012898BF9A1C4FF080430A44C2
:100810005A63D4E7A362C81801AE00220223CDE9CF
:1008200001550391C4E90766CCF83400CCF81020D8
:10083000CCF80C30AEE74FF08043DA60BFE700BF82
:100840007C080020E1050008000000000000000016
:1008500061B1084B10B4024644689B690420C3E9A7
:1008600000242360536010BCFFF762BF4FF0FF30DD
:10087000704700BF7C08002000000000000000005E
:10088000F8B504460F461646202383F3118803E08B
:10089000FFF7DEFF002818DBA56831462046002D53
:1008A000F6D06269A368511C013B6161A3601770B7
:1008B000D4E904329A4224BFE3686361E36903B177
:1008C0009847002080F31188F8BD85F31188F8BDA2
:1008D0003030FFF7D5BF00BF00000000000000006F
:1008E00030304FF0FF32FFF7CBBF00BF00000000F9
:1008F00070B5202304460E4683F3118803E0FFF70A
:10090000A7FF00281ADBA56831462046002DF6D047
:10091000A169A36820694A1C013B8242A360A261CD
:1009200028BFE3680D7828BFA361E3690BB12046B7
:100930009847002383F31188284670BD85F31188FA
:1009400070BD00BF000000000000000000000000BB
:100950000C30FFF7CDBF00BF00000000000000001A
:100960000C304FF0FF31FFF7C3BF00BF00000000A5
:100970000FB42DE9F04F87B010AB002753F8044BAC
:10098000BB4ECDE9013305E03368B948DB68013778
:100990002C4698472178651C002973D02529F3D16E
:1009A00063782D2B03BFA378A51C012000202B2BDF
:1009B00003BF6B784FF0010C65444FF0000C302BF7
:1009C00003BF6B784FF0300801354FF020082A2B19
:1009D00041D1019B03F1040E1A686B78AC1C2E2BDD
:1009E00004F101057FD0002103F0DF09B9F14C0FBC
:1009F0004ED0A3F14105632BEDB200F0DC805CD951
:100A0000702B00F01B8140F2A080752B00F02D812F
:100A1000782B00F01381732B5CD1DEF800500EF1BF
:100A200004030193002D00F091812B78002940F000
:100A30007481002B00F09A81A94647F6FE714D465D
:100A400001E04B1C04D015F8013F0139002BF8D10F
:100A50004FF02008BCE06C1CA3B1A3F13001C9B277
:100A6000092998BF002202D95DE1092948D814F864
:100A7000013B02EB8202A3F1300501EB4202E9B235
:100A8000002BF2D1384607B0BDE8F04F04B07047F4
:100A90002378002BF6D0632B00F08C8048D9702B84
:100AA00000F0CB807ED9752B00F0DE80782B00F033
:100AB000C480732B47D12C46AFE74F2B4BD040F26D
:100AC000E680552B00F0D180582B00F0B780502BDA
:100AD00000F0B4800DF11809CDF804E009F80C3DE0
:100AE0000DF10D0574E02378002BCBD02A2B0AD111
:100AF000DEF800106378E51C0EF1040E023473E793
:100B0000DDF804E06BE7002106E019F8013C04EB96
:100B10004A014D46002BB5D0A3F13004E4B2092CB4
:100B200005F1010901EB810AEFD92C464D465BE73F
:100B30004F2B3DD040F2E580552B00F09580582B8F
:100B40007BD0502B79D02C46C4E7692B00F0A480D1
:100B50006F2B40F001814FF0080971460DF1170528
:100B600051F8043B01912946B3FBF9FE09FB1E3302
:100B700003F1300CBCF1390FC8BF03F1370C7346D9
:100B800001F801CD002BEFD16D1A0DF10C0901EB2D
:100B9000050E4B4611F801CB03F801CB7145F9D195
:100BA0004D4415E0692B00F0B1806F2B40F0D880E8
:100BB0002C46D0E72C460DF11809DEF8003009F874
:100BC0000C3D0EF1040301934FF020080DF10D05CB
:100BD000A5EB090505F1FF3A551B37D488BBC5F1D4
:100BE000000B7DB399F800102D2943D0336841469E
:100BF000DB68304698471BF1010BF7D1BAF1000FC3
:100C00002F44FFF6C7AE5546336819F8011BDB6861
:100C1000013D304698476B1CF6D101375744BBF174
:100C2000000F3FF4B7AE5D4633684146DB6830469F
:100C30009847013DF8D15F44ACE62C464FF01009CF
:100C40008BE7AB46BAF1000FDDDAE8E728B9BAF175
:100C5000000FFFF69FAE8346D5E7BAF1000FFFF60F
:100C600099AE4FF0000BCEE72C464FF00A0974E71F
:100C700000080020B8F1300FB8D133683D48DB6878
:100C80009847013709F101090AF1FF3AAEE7442B11
:100C900002D0492B7FF41EAF7346192D53F804ABD5
:100CA000019336D9BAF1000F41DBBCF1000F49D0F6
:100CB0002B238DF80C300DF10D050DF10C0905F10C
:100CC0000B0C9646614652462B4BA3FB02A3DB0856
:100CD00003EB830B9A46A2EB4B033033524601F8E9
:100CE000013D002AF0D1ACEB010A72466B1E01EB0C
:100CF0000A0E11F801CB03F801CF7145F9D1554423
:100D000066E7442B02D0492B7FF41DAF2C460EF131
:100D10000403DEF800A00193C4E73BB30139A94600
:100D20007FF58DAE94E6DDF804E0002257E64FF043
:100D30002D038DF80C30CAF1000A0DF10D050DF1EF
:100D40000C09BCE70DF10C094D46B8E761B9DFF8B5
:100D50002C9047F6FE7172E6642B7FF4BBAE9BE7E6
:100D6000642BD3D02C46B5E6044DD7E7A9464FF007
:100D700020082DE700080020CDCCCCCC241C000896
:100D80002DE9F04F85B0CDE90232D0F81C904FF03C
:100D9000200A8AF311883AB304460F4616464FF0EC
:100DA000000BA2689642D4E904208CBFA5683546A2
:100DB000A2EB0008A84540D82BD32A463946FFF7B6
:100DC00095FAE2686261A268521BA2609DB1B9F116
:100DD000000F01D02046C8478BF31188761B2F44A3
:100DE0008AF31188002EDCD10398002383F3118845
:100DF00005B0BDE8F08F02992046FFF729FD0028D5
:100E0000CFD0039B981B002383F3118805B0BDE866
:100E1000F08FA5EB0803424639460193FFF766FAC7
:100E200007EB0801DDF80480E0684246FFF75EFA50
:100E3000E2684346D3186361C5E72A463946FFF79F
:100E400055FA62692A446261BDE700BF00000000F4
:100E50003030FFF795BF00BF000000000000000029
:100E600030304FF0FF33FFF78BBF00BF00000000B2
:100E70002DE9F04F85B0CDE90232D0F81C904FF04B
:100E8000200A8AF311883AB304460F4616464FF0FB
:100E9000000BA268A169964222698CBFA5683546FD
:100EA000A2EB0108A84540D82BD32A463846FFF7C5
:100EB0001DFAE268A261A268521BA2609DB1B9F15D
:100EC000000F01D02046C8478BF31188761B2F44B2
:100ED0008AF31188002EDCD10398002383F3118854
:100EE00005B0BDE8F08F02992046FFF7B1FC00285D
:100EF000CFD0039B981B002383F3118805B0BDE876
:100F0000F08FA5EB0803424638460193FFF7EEF950
:100F100007EB0800DDF80480E1684246FFF7E6F9D8
:100F2000E2684346D318A361C5E72A463846FFF76F
:100F3000DDF9A2692A44A261BDE700BF00000000FC
:100F40000C30FFF795BF00BF00000000000000005C
:100F50000C304FF0FF33FFF78BBF00BF00000000E5
:100F6000BD4BBE481A696FEAC2526FEAD25280B5D1
:100F70001A611A69C2F308021A614FF0FF341A6944
:100F80005A695C61002259695A615969196A61F0AC
:100F900080511962196A01F080511962196A596AFF
:100FA0005C62596A5A62596A196C41F0805119643D
:100FB000196E41F080511966196E016841F4807113
:100FC0000160196F01F44071B1F5007F86B003D064
:100FD0004FF4803119671A67A04CA14A6168A14D8E
:100FE000A14F9D486023402621F4007161604FF0BD
:100FF000800C82F806334FF48071C2F8806116606D
:101000004FF4007682F807332C46C2F880C1C2F84C
:1010100000C082F80833C2F88011116082F80933E9
:10102000C2F8806116604FF4806682F80A33C2F815
:10103000806116604FF4000682F81733C2F88061B1
:10104000166082F82833C2F88411516044F8047B9A
:101050006C6005F1540400214FF0010E05F16403AA
:1010600005F10C06AC61C5E908441024C5E9036626
:1010700085F808E06961EB61AC63046CEB6344EAFA
:101080000E040464046E794FAB6444EA0E040466F3
:10109000006EB8686B6440EA0E00A962ED622D65CF
:1010A000B8604FF08040724C724E734B42F2CF07E3
:1010B00087624FF0FF37C762646081614163C1603E
:1010C0004160C0F814E0C0F800E005F1740082F857
:1010D0001CC328646948E8644FF0805C684868670E
:1010E000C2F880C1C2F800C005F13002C5E90C2287
:1010F000644A2460A160326006F10C02C6E9032252
:1011000003F110021A61C6E9011103F124027161B1
:1011100014269E615A6203F128061C229E621A63FD
:1011200003F13C0603F14002DE631A6403F1440656
:1011300004F11C025E64C4E907220426524A1A62C2
:101140009A63C3E9003399605961D962DE615E63D5
:101150004E4A4F4B4F486167C0E9002300220023ED
:10116000C4E90444C4E909710097CDE90423CDE939
:10117000011103916846FFF72BFA6846FFF700FA62
:10118000013EF7D1444A6769009B636780200121D3
:1011900002F12C03DFF814E1A06302F1280CE066F1
:1011A00084F85160C4E91966C4E9104784F8521004
:1011B000C4F848E020203A61C4E9052284F85010C0
:1011C000E664C4E916C3236680F3118862B6334B24
:1011D000334FD3F80CC04FF6FF0E0CEA0E0C0EF195
:1011E000604E4CEA0707AEF60F3EDF60DEF80C708B
:1011F000DFF8BCC047F08077CEF80C70DCF80070E8
:101200004FF0100E0F43CCF8007083F81FE083F806
:10121000220086F3118862B680F31188214B606941
:10122000C3F89810C3E9326183F8B2101E4FDFF89B
:1012300084E0DFF884C0DF6603F16C01C3F89C1022
:1012400003F190070221A3F8B010C3F8A400C3F87B
:10125000C460C3F88CE031E0003802400070004008
:1012600000E100E000080020AC1C0008002004E0C1
:101270007C080020200E0020F4080020F104000863
:1012800000140140B104000851050008400E002080
:1012900000000220180A0020AC08002000ED00E049
:1012A0000003FA0540090020E1060008641B00085D
:1012B000001000E0D10200087C1B0008C3F8A8C0A1
:1012C0001E67C3F8A040C3F8AC300761A069C3F83B
:1012D000B460D0F808C0676103F1BC0103F1B80E37
:1012E000C3E92EE1C3F8C010BCF1000F74D083F83D
:1012F000B060303A126891680029FBD1C3F89020A1
:101300005168C3F894100F605760002383F311886D
:10131000202383F311882B7A012B00F0DB806B6F85
:10132000764A934200F0D380754840F2454240F639
:101330008B01834208BF0A464020012442F22C1749
:1013400000219A60186102225C61DF601960FF274A
:10135000D3F800C05B6885F878702A7281F3118831
:10136000FFF75EF88020FFF75BF86648FFF700FBA9
:10137000654B93E807006B4603C364491A806448D1
:10138000644AFFF7F5FADFF898C120466D4602AFD0
:1013900031234FF0FF320024072113F0010F1CBF4F
:1013A00000FA01FE44EA0E0411F1FF314FEA530343
:1013B000F3D282EA04620823002A03F1FF334FEAE2
:1013C0004202B8BF82EA0C0213F0FF03F4D1AF422D
:1013D00017D015F8013FDEE780F82060303A126838
:1013E00091680029FBD15168C0E900210860506074
:1013F0000122014683F8B0204748A761FEF760FF4D
:1014000083E71F21012012F0010F1CBF00FA01F435
:10141000234311F1FF314FEA5202F4D2D9433F483E
:101420003F4CFFF7A5FA3F48002500F5806C2946A0
:101430000823002903F1FF334FEA4101B8BF61409F
:1014400013F0FF03F5D140F8041F844505F18075C2
:10145000EDD1DFF8E0E0684631234FF0FF314FF087
:10146000010C0024072213F0010F1CBF0CFA02F537
:101470002C4312F1FF324FEA5303F4D284EA116392
:10148000DBB287425EF8233083EA012102D010F8F4
:10149000013FE6E71F23012211F0010F1CBF02FAF2
:1014A00003F0064313F1FF334FEA5101F4D2F14345
:1014B0001D48FFF75DFA202484F3118841F288313A
:1014C0000820FFF735F9002383F31188F4E740F68D
:1014D0008B0231E7154B164A596C41F020015964D3
:1014E000596E41F0200159665B6EC021802382F85D
:1014F0004713C2F88831936011E700BF0010014024
:1015000000140140841B0008181C0008901B0008F0
:10151000981B00082639F4CBD0090020C81B00080E
:10152000B71DC1041C0A0020F01B0008003802404F
:1015300000E100E0200A00200000000000000000A0
:10154000EFF30983203383F30988002383F31188A1
:10155000704700BF00000000000000000000000015
:1015600038B52022034682F31188104A9469A06A94
:10157000636204F12805A84206D00368A362FFF75E
:1015800067F8A06AA842F8D194F8223043B994F8D9
:1015900021309B0704D1D4E904231A6122695361E5
:1015A0000F20BDE83840FFF7ABB800BF7C08002033
:1015B0000E4A1068036830B4012194695A6000250E
:1015C00080F82010A1681360906184F8205000E03A
:1015D0001B689A689142FBD35A682146C4E90032DD
:1015E00014605C6030BCFEF76BBE00BF7C0800205E
:1015F0007E4A7F481369DFF84CC240F2FF110B436B
:101600002DE9F041136113697A4EDFF83CE27A4F1D
:101610007A4D7B4C23F4FF7323F0010313611369AC
:10162000136B0B431363136D0B4313656FF4A841E6
:101630000023D2F85080436081604FF6FF71C0F8FC
:101640000CE0DFF808824161DFF804E207624FF442
:101650001077C0F82480C0F800E077604FF0FF30CA
:10166000DFF8F0E1B0604FF08067C6F80CE0716120
:101670004FF0400E3762634FC6F824E0376006F142
:10168000A25606F5443606F5AA766B60A860EE60B1
:101690004FF0C04669612E625B4E6E625B4E2E60FB
:1016A0005B4D6360A060E56040F6FF756561594F72
:1016B000594E5A4D236263622560CCF80430584D70
:1016C000CCF8080004F5A054CCF80C30CCF8141079
:1016D000CCF82030CCF82430CCF800E0ACF5D03C8D
:1016E0007B60B860FB6079613B627B623B607360EA
:1016F0004FF08057B060F3607161336273623360A2
:101700004FF440466B60A860EB6069612B626B62CE
:101710002B606360A060E3606161236263622360A9
:101720001764CCF80060136843F00103136013687A
:101730009D07FCD593682D4923F0030393608B68C4
:1017400013F00C03FBD10A68284802F0F9020A6082
:101750008B600B6843F480330B6003689C03FCD5FB
:10176000436F224A43F001034367536F9907FCD547
:101770002C4B536013682C4943F0807313604B6803
:101780005A04FCD5194A13689B01FCD5274B2849FC
:1017900091601A68274B9A421ED0274B40F205727F
:1017A0001A60254A136803F00F03052BFAD10F4A7C
:1017B000936843F002039360936803F00C03082BD3
:1017C000FAD1536C43F480435364536E43F4804323
:1017D0005366536EBDE8F081184A194B12689A425D
:1017E000DBD1154B40F205121A60DAE700380240EF
:1017F000000002400004024000005655000802406C
:10180000000C024080200800000606000180200233
:1018100055505500001402400018024000010055C8
:10182000001C02400854400700700040002004E003
:101830000094883811640020003C024000ED00E074
:1018400041C20F41001002405400014000AA0A00AA
:1018500000AAA02A15455155000000000000000014
:101860002DE9F047684D6E6FD6F80C803368DA05C5
:101870009CB27DD4202383F3118814F02F0F4DD018
:10188000624F4FF0000908E0A106D6F804A01DD46D
:101890003468A4B214F02F0F40D02307F4D014F012
:1018A000080F0CBF00208020E10748BF40F0200057
:1018B000A20748BF40F04000630748BF40F4807073
:1018C000FEF7DEFEA106D6F804A0E1D56B6995F817
:1018D0007840002B3DD0D5E90832934240D06A6968
:1018E000591C013204EA0A0A6A61296283F800A0DD
:1018F000D5E907329A4201D3AB692B62EB68BB4250
:10190000C6D01A68EA6018465760C3F82490FEF7FC
:101910009FFE3468A4B214F02F0FBED1002383F3CE
:10192000118818F0800F01D022062FD418F0400F34
:101930000BD0630609D5202383F31188D5E9112341
:101940009A4248D0002383F31188BDE8F047FEF7A0
:10195000D7BD0420FEF794FED5E908329342BED1EC
:101960006A69002ABBD04FF48060FEF789FE8FE7DA
:10197000202383F311884FF40070FEF781FE6FF48B
:1019800080733360002383F3118873E7202383F38C
:101990001188D5E911239A4229D0AA6B296C581CC9
:1019A0000132AA63A86488421F7801D3EB6BAB6451
:1019B0002B6B174A934209D0196829634FF0000C2A
:1019C0004A601846C3F824C0FEF742FE7760002341
:1019D00083F31188AAE7AB6B002BB3D01020FEF77E
:1019E0004FFE4FF6BF7308EA0303F360AAE7AA6B42
:1019F000002AD2D00820FEF743FE4FF67F7308EA94
:101A00000303F360E3E700BF000800200C08002098
:101A1000300800200000000000000000000000006E
:101A20002DE9F0474FF080473B69FA681340DAB27E
:101A3000D2439B073A6103D4BDE8F047FEF760BD8F
:101A4000202383F311881E4CA1464FF0000859F85B
:101A50001C3F9A68786AA16A451AAA421CD82026B7
:101A60001868D3F80CA011444845A162A5EB020503
:101A7000C0F80490E061C3F80C8008BFC7F80C8080
:101A800088F311881869D04786F31188E3699A684A
:101A90009542DFD3A16AE3E7E2694A4509D091683C
:101AA000A0624D1B95609B68022B2CBFC0180230B2
:101AB0007863002383F31188BDE8F047FEF720BD6B
:101AC0007C08002000000000000000000000000072
:101AD000F0B4144E144D154C154B164906F1700C0C
:101AE00000279C4211D904391A4651F8040F42F8D4
:101AF000040B9442F9D8DA43144424F00304043468
:101B000023449D4203D943F8047B9D42FBD866459C
:101B100005D0D6E90413D6E906451036E1E7F0BC56
:101B2000704700BF2C1C00083C0E00203C0E00201B
:101B30003C0E0020D41C0008000000000000000043
:101B4000FEE700BF000000000000000000000000F1
:101B5000704700BF0000000000000000000000000F
:041B6000704700BF0B
:101B64006D61696E00164130040444080C101418A9
:101B74001C2021220000000069646C650000000044
:101B84004269736D696C6C61680D0A004352432DA0
:101B94003332000054686520636865636B207661A6
:101BA4006C756520666F72207468652025732073D8
:101BB40074616E6461726420697320307825580AF8
:101BC4000000000054686520637263536C6F7728CB
:101BD40029206F66202231323334353637383922A2
:101BE40020697320307825580A0000005468652065
:101BF400637263466173742829206F662022313230
:101C040033343536373839222069732030782558F3
:101C14000A000000313233343536373839000000D9
:101C2400286E756C6C290000D41C00083C0E002042
:101C34003C0E00203C0E0020D41C000800000020B4
:101C44000000002000000020D41C000800C0012077
:101C540000C0012000C00120D41C000800000000C6
:101C64000000000000000000D41C00080000001068
:101C74000000001000000010D41C000800400240C6
:101C84000040024000400240D41C00080000000054
:101C94000000000000000000D41C00080000000048
:101CA400000000000000000000000000610E0008B9
:101CB400510F0008E108000861090008D108000874
:101CC40051090008510E0008410F0008F1060008F0
:04000005080002B934
:00000001FF
