:020000040800F2
:1000000000040020B9020008BB020008BB0200087F
:10001000BB020008BB020008BB020008BB020008CC
:10002000BB020008BB020008BB020008F122000866
:10003000BB020008BB020008BB020008BB020008AC
:10004000BB020008BB020008BB020008BB0200089C
:10005000BB020008BB020008BB020008BB0200088C
:10006000BB020008BB020008BB020008B13E00084A
:10007000813E0008513E0008213E0008F13D000885
:10008000C13D0008913D0008BB020008BB0200080A
:10009000BB020008BB020008BB020008BB0200084C
:1000A000BB020008BB020008BB020008BB0200083C
:1000B000F13A0008BB020008BB020008BB020008BE
:1000C000BB020008BB020008BB020008BB0200081C
:1000D000BB020008BB020008BB020008BB0200080C
:1000E000BB020008BB020008BB020008BB020008FC
:1000F000BB020008BB020008BB020008613D00080B
:10010000BB020008A13B0008BB020008BB020008BC
:10011000BB020008BB020008BB020008BB020008CB
:10012000313D0008013D0008D13C0008A13C000819
:10013000713C0008BB020008BB020008BB020008BB
:10014000BB020008BB020008BB020008BB0200089B
:10015000413C0008113C0008E13B0008313900082F
:10016000BB020008BB020008BB020008BB0200087B
:10017000BB020008BB020008BB020008BB0200086B
:10018000BB020008BB020008BB020008BB0200085B
:10019000BB020008BB020008BB020008BB0200084B
:1001A000BB020008BB020008BB020008BB0200083B
:1001B000BB020008BB020008BB020008BB0200082B
:1001C000BB020008BB020008BB020008BB0200081B
:1001D000BB020008BB020008BB020008BB0200080B
:1001E00072B6274880F30888264880F30988264895
:1001F0004EF60851CEF200010860022080F3148808
:10020000BFF36F8F03F0B4FE03F05AFA4FF055308E
:100210001E491B4A91423CBF41F8040BFAE71C49B6
:10022000184A91423CBF41F8040BFAE719491A4AAF
:100230001A4B9A423EBF51F8040B42F8040BF8E700
:1002400000201749174A91423CBF41F8040BFAE7D6
:1002500003F046FE03F084FE134C144DAC4203DA67
:1002600054F8041B8847F9E702F012FC104C114DBA
:10027000AC4203DA54F8041B8847F9E703F068BE80
:1002800000040020000800200000000800000020FA
:10029000000400205C460008000800200008002040
:1002A0000008002070170020E0010008E0010008AD
:1002B000E0010008E001000892E700F000F8FEE726
:1002C0002DE9F04FC1F80CD0C3689D46BDE8F08F12
:1002D000002383F311882846A047002002F018F875
:1002E000FEE702F03DF800DFFEE70000844641EA49
:1002F000000313F003036DD1403A41D351F8043B9E
:1003000040F8043B51F8043B40F8043B51F8043BEF
:1003100040F8043B51F8043B40F8043B51F8043BDF
:1003200040F8043B51F8043B40F8043B51F8043BCF
:1003300040F8043B51F8043B40F8043B51F8043BBF
:1003400040F8043B51F8043B40F8043B51F8043BAF
:1003500040F8043B51F8043B40F8043B51F8043B9F
:1003600040F8043B51F8043B40F8043B51F8043B8F
:1003700040F8043B51F8043B40F8043B403ABDD2FE
:10038000303211D351F8043B40F8043B51F8043BA0
:1003900040F8043B51F8043B40F8043B51F8043B5F
:1003A00040F8043B103AEDD20C3205D351F8043B2F
:1003B00040F8043B043AF9D2043208D0D2071CBFFB
:1003C00011F8013B00F8013B01D30B880380604624
:1003D000704700BF082A13D38B078DD010F003039A
:1003E0008AD0C3F10403D21ADB071CBF11F8013B0A
:1003F00000F8013B80D331F8023B20F8023B7BE759
:10040000043AD9D3013A11F8013B00F8013BF9D283
:100410000B7803704B7843708B788370604670471D
:100420002DE9F0470021214C02254FF008084FF03C
:10043000010E4FF0030C0F270DE0266A06EA0909AA
:1004400049EA02022262226813402B4323604008DB
:1004500029D0AD00013101F0070292004B0007FAEC
:1004600002F90CFA03F310F0010F0EFA01F66FEA2D
:10047000030308FA02F26FEA0909E8D0D4F804A0ED
:100480002AEA06066660A6681E40A660E668072996
:1004900006EA0306E660D0D9666A06EA090949EA6F
:1004A00002026262CFE7BDE8F08700BF00080240A9
:1004B00030B4202383F311880B4CD4E90035494232
:1004C000281A0840821A9A4207D3954205D36260DF
:1004D000002383F3118830BC70470020002383F38E
:1004E000118830BC704700BFA00E00200000000043
:1004F000024AD36843F0C003D36070470014014040
:10050000274A284BB0F5805FF0B441F67D5106468E
:100510003CBF1346612180B204330DE088420ED304
:1005200033F8022CD4B26518AE424FEA122208DB2F
:1005300004337AB133F8041C1F460029EED1F0BC15
:100540007047082AFBD8DFE802F00E12181B1E21A4
:1005500024270A0007EB440337F81410DCE7A0F562
:10056000E35080B2EBE7711A33F81100E7E7411A64
:1005700001F00103C01A80B2E1E7103880B2DEE773
:10058000203880B2DBE7303880B2D8E71A3880B242
:10059000D5E7083080B2D2E7503880B2CFE700BF4D
:1005A000244100081843000800000000000000007B
:1005B0000A44013811F8013B00F8013F9142F9D19A
:1005C000704700BF000000000000000000000000B5
:1005D0000168D9B10A4601E03A2B05D012F8013B77
:1005E0001F2BF9D80020704710B40B78A3F130040A
:1005F000092C08D802318A4205D1302B03D1026080
:10060000002010BC70474FF0FF30FAE74FF0FF308A
:10061000704700BF00000000000000000000000064
:1006200000207047000000000000000000000000F3
:1006300028B9044B1879053818BF012070470120EC
:10064000704700BF84080020000000000000000088
:10065000202383F311880D4B5B6813F4006302D1F0
:1006600083F311887047EFF30983203B4FF08072CA
:10067000DA6183F30988064A116892698968926889
:1006800091428CBF034A044A9A61704700ED00E032
:10069000040D0020E3020008E6020008000000004C
:1006A000084B10B4D3E900424942101A0840A04256
:1006B00004D3824202D3586010BC7047002010BCA3
:1006C000704700BFA00E00200000000000000000E6
:1006D0000E4B0F4A5B68C168F0B48468566F42687D
:1006E0001B1BD0E904459B1BE61845F1000793420C
:1006F000026888BF436001319342C0E90467C0E9E2
:10070000023138BF0360F0BC704700BF001000E04A
:10071000040D0020000000000000000000000000A8
:10072000014B5B6883607047001000E00000000030
:10073000202383F3118890F82030072B0ED8DFE8B0
:1007400003F0280D0D2408040D08426A9368013354
:100750009360D0E900231A600268536010B400224D
:100760004FF0FF3481680D4B446280F820201B68F5
:100770009A688A42FBD25A680021C0E900321060B0
:10078000586081F3118810BC7047436A00221A60D8
:10079000E4E7002383F31188704700BF040D0020B5
:1007A00001460022074B806881F820201B689A6868
:1007B0008242FBD25A680846C1E900321160596092
:1007C000704700BF040D0020000000000000000082
:1007D000F8B5164F57F8044FBC4220D00546002606
:1007E00004E00B2A1CD02468BC4218D0E3682B43D9
:1007F000E36015B123691D42F5D0D4E90103416BD3
:1008000090F820200B430A2A4363EAD1426A13423C
:10081000E9D04662FFF7C4FF2468BC42E6D1F8BDC8
:10082000426A32EA0303DED1F3E700BF0808002082
:10083000FEE700BF00000000000000000000000014
:1008400001207047000000000000000000000000D0
:1008500001F001038A0748BF43F002034A0748BF7B
:1008600043F008030A0748BF43F00403CA0648BF21
:1008700043F010038A0648BF43F020038A0502684C
:1008800048BF43F04003134303607047000000007B
:1008900010B5846C41F49861A260E160616B11F065
:1008A0004502FBD0A26311F03F0209D1216A196011
:1008B000E1695960A16999606169D960104610BD0C
:1008C0003430FFF7C5FF012010BD00BF000000005D
:1008D00010B5846C41F48861A260E160616B11F035
:1008E0004502FBD0A26311F0050203D161691960D2
:1008F000104610BD3430FFF7ABFF012010BD00BF24
:1009000030B40C4B0C490D4A1A600D4D9D64012208
:1009100090241A714FF4003081F8314300225A6359
:1009200030BCC1F88401DA6248609A62DA635A64C2
:10093000704700BF8408002000E100E00C4500087B
:10094000002C01400000000000000000000000003A
:100950002DE9F041D0E911350646587AD5F834E052
:10096000D3E9003C3D2404FA00F0CCF800001C68F8
:1009700024F01F04884617461C601C6814F001040C
:10098000FBD10C4BCCF800007146AB6306F1340090
:10099000EC63EC62FFF75CFFB8F1010F07D93B464F
:1009A000224630460C21BDE8F041FFF791BFBDE87B
:1009B000F08100BFFF07C000000000000000000041
:1009C0000020704700000000000000000000000050
:1009D0000379052B01D001207047836A4B604FF4E7
:1009E00000730B6000207047000000000000000052
:1009F0000079053818BF0120704700BFC3689B0FFE
:100A00000AD0012B1AD18368C288180400F47C1024
:100A10001043013080027047D0E9012340F6FC709A
:100A200000EA830040EA9270C2F3C232023201301F
:100A3000C3F303439040093B984070470020704740
:100A4000084B99691A6810B481F820001068186082
:100A50000124436082F82040104610BC9A61FFF7E1
:100A60002FBC00BF040D00200000000000000000AB
:100A7000F8B5374A83689569002B40D0A9689A6811
:100A80009142044607D993F820209960062A3BD06A
:100A9000072A15D042B32646234603E09968AA6880
:100AA00091422AD31B689C42F8D173680620C5E99D
:100AB00000631D6075606C62BDE8F840FFF7C0BF61
:100AC000D3E9000210605E6A18684260324602E0B4
:100AD0009068884232D312689642F9D17268C3E9AD
:100AE000006213607360D6E7D3E9001211601968E1
:100AF00018464A60FFF754FECDE71E46D5E7AB6BBC
:100B0000C0E90253A863F8BDD3E9000210605E6A31
:100B1000186837464260324602E09068884214D333
:100B200012689642F9D17A68A968C3E90072136025
:100B30007B60B3689A688A42A5D3ACE716467268B0
:100B4000C3E9006213607360A5E71746EBE700BFD7
:100B5000040D002000000000000000000000000064
:100B6000F0B54B1C87B04CD0414C2546022955F8B6
:100B70001C2FA36905934FF0804C074638BF022114
:100B80003C48DCF824300490AA425BD0A66A906806
:100B90009B1B59182FD31268091A9068814204D9F7
:100BA0001268091A90688842FAD35368029301AE1A
:100BB00001921E60566003919368591A4FF0FF33FB
:100BC000916063623846FFF73BFF049B7BB1E269AB
:100BD000019BB2421CD0029A1360019B0021AB42E0
:100BE0005A60049103D09A6803990A449A60A369F1
:100BF000586A07B0F0BD8142D0D20E44CCF83460C0
:100C0000CCE71B4CFFF71CFFA369586A07B0F0BD87
:100C10000022AB42E3615D60049224D09A6803989D
:100C2000A16A02444FF080409A60436A5B1A9A427C
:100C3000DDD9D01A012898BF9A1C4FF080430A448E
:100C40005A63D4E7A362C81801AE00220223CDE99B
:100C500001550391C4E90766CCF83400CCF81020A4
:100C6000CCF80C30AEE74FF08043DA60BFE700BF4E
:100C7000040D002031070008000000000000000003
:100C800061B1084B10B4024644689B690420C3E973
:100C900000242360536010BCFFF762BF4FF0FF30A9
:100CA000704700BF040D002000000000000000009D
:100CB000F8B504460F461646202383F3118803E057
:100CC000FFF7DEFF002818DBA56831462046002D1F
:100CD000F6D06269A368511C013B6161A360177083
:100CE000D4E904329A4224BFE3686361E36903B143
:100CF0009847002080F31188F8BD85F31188F8BD6E
:100D00003030FFF7D5BF00BF00000000000000003A
:100D100030304FF0FF32FFF7CBBF00BF00000000C4
:100D200070B5202304460E4683F3118803E0FFF7D5
:100D3000A7FF00281ADBA56831462046002DF6D013
:100D4000A169A36820694A1C013B8242A360A26199
:100D500028BFE3680D7828BFA361E3690BB1204683
:100D60009847002383F31188284670BD85F31188C6
:100D700070BD00BF00000000000000000000000087
:100D80000C30FFF7CDBF00BF0000000000000000E6
:100D90000C304FF0FF31FFF7C3BF00BF0000000071
:100DA00008B50146202383F311880820FFF7D8FEF9
:100DB000002383F3118808BD00000000000000003C
:100DC00030B50E4D83B0044601ABA26B0D21204619
:100DD000FFF77EFD78B9019B2B42C3F3432209D173
:100DE000042A08D04FF00A0004D3072A02D8FFF7DC
:100DF000D7FFE9E7012003B030BD00BF08E0FFFDE9
:100E0000202282F311880279022A13D038B50423F4
:100E100004460371002585F31188FFF7D1FFA36C09
:100E2000022218B958601860227138BD5D601D60DB
:100E3000227138BD002080F3118870470000000047
:100E40002DE9F041202306460F46904683F3118892
:100E5000846CE36B13BB606B10F4807019D0736CFF
:100E60001D68286810F00100FBD1597A5A68114BAF
:100E70003D258D401560A363E06280F31188012F4A
:100E80000AD9434602460C213046BDE8F041FFF73F
:100E90001FBD80F311880120BDE8F081064A03469A
:100EA000926943F83C2F03205362FFF7C9FDB46CED
:100EB000D1E700BFFF07C000040D002000000000C4
:100EC000F0B504461D46D0E910031B68D4F830C0C5
:100ED000DA606F0240F04000BA085A6018601E687D
:100EE000A06C46F001061E601CF0100F194B8363C6
:100EF00083B040F21A330A4601AE08BF4A02012D00
:100F0000C3638762334619D919212046FFF7E0FCF5
:100F100060B9019A104B134043B9A36C9922DA626D
:100F2000294632462046FFF78BFF28B1204632463D
:100F30002946FFF70DFD012003B0F0BD1821204622
:100F4000FFF7C6FC0028F1D1019A034B1340002B98
:100F5000E3D0EBE7FF07C00008E0FFFD0000000062
:100F60002DE9F0430E46876A591E3144B94283B0D9
:100F7000044607D9436B43F080034363012003B069
:100F8000BDE8F083154607220271AA0727D023B3D4
:100F90001A4FDFF86C8006EB030929464FF4007204
:100FA0003846FFF7A3F9A36C2046C3F8248005F563
:100FB0000075FFF705FF28B101200523237103B059
:100FC000BDE8F083314601233A462046FFF778FF1B
:100FD00001360028F0D14E45DFD10020EDE7826CCC
:100FE000074951620193FFF7EBFE019B0028E3D113
:100FF0002A4631462046FFF763FFDEE770150020E2
:1010000000366E010000000000000000000000003B
:1010100068B910B4074814460279052A02D00320A3
:1010200010BC70470A46214610BCFFF799BF042048
:10103000704700BF8408002000000000000000008E
:1010400070B500F134060446026B40783146012346
:10105000FFF7DEFF60B9216B636AE269E070CB1ACB
:101060009342054602D2A378022B03D0284670BDD6
:10107000012070BD0A44607831460123FFF7C8FFA4
:10108000284670BD000000000000000000000000C5
:10109000F0B504461D46D0E910031B68D4F830C0F3
:1010A000DA606F02BA085A6018601E68A06C46F0D9
:1010B00001061E601A4B83631CF0100F40F22A33A6
:1010C00083B0C3630A464FF09B0308BF4A0201AED8
:1010D000012D8762C362334616D912212046FFF7DD
:1010E000F7FB48B9019A0F4B13402BB932462946FA
:1010F0002046FFF7A5FE28B1204632462946FFF7D5
:1011000027FC012003B0F0BD11212046FFF7E0FBD2
:101110000028F1D1019A034B1340002BE6D0EBE7F6
:10112000FF07C00008E0FFFD000000000000000015
:101130002DE9F0430E46876A591E3144B94283B007
:10114000044607D9436B43F080034363012003B097
:10115000BDE8F083154606220271AA0726D01BB30C
:101160001A4FDFF86C9006EB0308A36C20465F6211
:10117000FFF726FE28B101200523237103B0BDE847
:10118000F08331464A4601232046FFF781FF0136AE
:101190004FF4007249460028EDD12846FFF7A6F823
:1011A000464505F50075E0D10020E5E7826C07496A
:1011B00051620193FFF704FE019B0028DBD12A4610
:1011C00031462046FFF764FFD6E700BF00366E01C8
:1011D000701500200000000000000000000000006A
:1011E00068B910B4074814460279052A02D00320D2
:1011F00010BC70470A46214610BCFFF799BF042077
:10120000704700BF840800200000000000000000BC
:1012100038B5C37804460D4613B1FFF711FF70B916
:101220002A46012304F134016078FFF7D9FF002832
:1012300018BF4FF0FF3525630CBF0020012038BDDB
:1012400001292CD982699142F8B5064625D2037846
:10125000022B0C463BD0032B23D0012B1DD1436A1C
:10126000D0F830C001EB510703EB572161454AD15B
:10127000C7F308020137324403EB5721614592F866
:10128000345048D1C7F30803334493F83400E307DC
:1012900045EA002045D50009F8BD0120F8BD012030
:1012A0007047416A036B01EBD411994226D1A1002A
:1012B00006F1340301F4FE715A18585C51885378D2
:1012C00043EA012340EA032020F07040F8BD416A60
:1012D000036B01EB1421994205D0FFF799FF10B180
:1012E0004FF0FF30F8BD610006F1340301F4FF71E7
:1012F0005A18585C537840EA0320F8BDFFF788FF7E
:101300000028D4D0ECE7FFF783FF0028E8D1736A08
:10131000D6F830C0ACE73046FFF77AFF0028B1D0EE
:10132000DEE7C0F30B00F8BD000000000000000085
:10133000B1F5001F29D2CA06F8B50C4623D1816841
:1013400004610546066819BB3378022B01D9B36ADC
:10135000EBB93389B3EB541F15D9B36AAB6169613B
:101360008BB1C4F30802343603EB54241644C5E9A8
:1013700006460020F8BDB369023B8A1E9A421ED37E
:101380000023C5E905130220F8BD02207047194665
:1013900077897F02BC42EED3304607E00128F2D9BC
:1013A000B3698342EFD9A742E6D82868FFF748FF20
:1013B000431C0146A4EB0704F0D10120F8BD73895A
:1013C000F06A02FB0303AB61C9E700BF0000000045
:1013D0002DE9F8430378022B04460D46164658D0F3
:1013E000032B37D0012B02D00220BDE8F883416ADD
:1013F000036B05EB550701EB5721994262D107F1C9
:101400000108EB07C7F308074FEA582104F1340934
:1014100062D519F8073003F00F0343EA061309F801
:101420000730626A236B114499424FF00102E27067
:1014300004D02046FFF7ECFE0028D6D1C8F30808F8
:10144000C844C6F30716012388F80060E370002043
:10145000BDE8F883416A036B01EBD511994236D19F
:10146000AD0004F1340105F4FE754B1926F0704609
:101470005A88120402F0704232434A55160A100C80
:101480000121120E98705E70DA70E1700020BDE8E4
:10149000F883416A036B01EB1521994203D0FFF7F2
:1014A000B7FE0028A1D16D0004F1340305F4FF75E7
:1014B0005A195E55C6F3072101235170E3700020CD
:1014C000BDE8F883FFF7A4FE002898D08DE7FFF76A
:1014D0009FFE0028C4D088E709F80760626A236B82
:1014E000114499424FF00102E2700AD1C8F3080892
:1014F000C844C6F3032298F8003023F00F061643C1
:10150000A1E72046FFF784FE00287FF46EAFEDE7E9
:101510004FF0FF330022994210B50446C2700363B6
:1015200021D194F8331294F832324AF6552243EA24
:101530000123934215D194F83430EB2B03D01833A8
:10154000DBB2012B2AD894F86A30462B11D194F8DB
:101550006B30412B0DD194F86C30542B09D1002005
:1015600010BD032010BDFFF753FE0028D9D0042082
:1015700010BD94F886300A4904F18702463B8B344B
:1015800063B912F8013B11F8010FA242A3EB00036B
:10159000F6D1002B14BF0220002010BD022010BD88
:1015A000DC40000800000000000000000000000017
:1015B0002DE9F041002384B00B600D46FFF708F8D9
:1015C000021EC0F2C880BD4B53F82240002C00F030
:1015D000E8802C60237843B16078FFF729F810F099
:1015E000010002D104B0BDE8F081D0B200236070E8
:1015F0002370FFF71DF810F0010540F0AE8029467A
:101600002046FFF785FF022800F0A980042800F09B
:10161000D180012800F2C38094F8402094F83F3034
:1016200043EA0223B3F5007F40F0B98094F84B20E1
:1016300094F84A3053EA022309D1B4F85A1094F8C6
:10164000593094F8582043EA012342EA032394F8DE
:101650004420E361511E0129A27000F2A08094F899
:10166000411088B26081002800F09980481E08422D
:1016700040F0958094F8460094F8456046EA0026CC
:101680003007268140F08B8094F8487094F847002A
:1016900050EA072009D1B4F856C094F8557094F870
:1016A000540047EA0C2740EA072094F843C094F816
:1016B000427057EA0C2772D003FB02F207EB161CAC
:1016C0000CEB020E70456AD3A0EB0E00B0FBF1F1FB
:1016D000002964D07A48814261D84FF6F570814282
:1016E0006AD994F85F8094F85E20256202312F4415
:1016F0000EEB050052EA0822A1616762E0624ED15A
:10170000002E4CD1B4F8622094F8616094F8600027
:10171000890046EA022601F2FF1240EA0620B3EBF6
:10172000522FA0623BD394F8651094F8643043EADA
:1017300001234FF0FF328021012BC4E904222171E3
:1017400070D003235F4A2370138801339BB2138048
:10175000E380002046E70B2044E7032042E72946C8
:1017600004F5FE7212F8063C43B1158812F8010C1C
:1017700012F8023C40EA052043EA00234DF82130EC
:101780000131042902F11002ECD100265DF8265047
:10179000013645B90320042EF8D104280AD00D20C3
:1017A00020E70C201EE729462046FFF7B1FE01285E
:1017B000F1D831E7012015E740F6F57807EB050C85
:1017C0000EEB05008F1C4145A761C4E9085CE0628F
:1017D00016D8002EE3D007F0010101F2FF1107EB4C
:1017E000470701EB57076244B3EB572FA262D6D3EA
:1017F0004FF0FF338022C4E9043322710123A1E7B3
:10180000002ECCD0790001F2FF116244B3EB512FCE
:10181000A262C4D34FF0FF338022C4E904332271A3
:1018200002238FE7236B691C994204D02046FFF7FF
:10183000EFFC002885D194F8332294F8323243EA41
:1018400002234AF655220021934221717FF479AF99
:10185000E08E94F8352094F834301B4942EA002297
:1018600043EA02238B427FF46CAFB4F81A0294F877
:10187000192294F8183201F1FF5101F5005142EAA2
:101880000022203143EA02238B427FF45AAFB4F89E
:101890001E6294F81D02B4F8225294F8211294F8B2
:1018A0001C2294F8203240EA062041EA052142EA4F
:1018B000002243EA0123C4E9043242E70008002081
:1018C000F5FFFF0F040800205252614100000000A4
:1018D000F0B5856C1F4E6E6283B004460D46164609
:1018E0001F46FFF76DFA002832D1D4E910231B6898
:1018F000A06CDD60B10859601A601D68DFF85CC03B
:1019000045F001051D600F2240F22A3301ADC0F8F9
:1019100038C03946C36386622B46C262089A2046A5
:10192000FEF7D6FF38B120462A460121FFF710F80E
:10193000012003B0F0BD019A074B1340002BF2D1F8
:101940002A4601212046FFF77BFA0028EBD1F0E779
:1019500001ADE8E700366E0108E0FFFDFF07C000BB
:101960000FB42DE9F04F87B010AB002753F8044BAC
:10197000BB4ECDE9013305E03368B948DB68013778
:101980002C4698472178651C002973D02529F3D16E
:1019900063782D2B03BFA378A51C012000202B2BDF
:1019A00003BF6B784FF0010C65444FF0000C302BF7
:1019B00003BF6B784FF0300801354FF020082A2B19
:1019C00041D1019B03F1040E1A686B78AC1C2E2BDD
:1019D00004F101057FD0002103F0DF09B9F14C0FBC
:1019E0004ED0A3F14105632BEDB200F0DC805CD951
:1019F000702B00F01B8140F2A080752B00F02D8130
:101A0000782B00F01381732B5CD1DEF800500EF1BF
:101A100004030193002D00F091812B78002940F000
:101A20007481002B00F09A81A94647F6FE714D465D
:101A300001E04B1C04D015F8013F0139002BF8D10F
:101A40004FF02008BCE06C1CA3B1A3F13001C9B277
:101A5000092998BF002202D95DE1092948D814F864
:101A6000013B02EB8202A3F1300501EB4202E9B235
:101A7000002BF2D1384607B0BDE8F04F04B07047F4
:101A80002378002BF6D0632B00F08C8048D9702B84
:101A900000F0CB807ED9752B00F0DE80782B00F033
:101AA000C480732B47D12C46AFE74F2B4BD040F26D
:101AB000E680552B00F0D180582B00F0B780502BDA
:101AC00000F0B4800DF11809CDF804E009F80C3DE0
:101AD0000DF10D0574E02378002BCBD02A2B0AD111
:101AE000DEF800106378E51C0EF1040E023473E793
:101AF000DDF804E06BE7002106E019F8013C04EB97
:101B00004A014D46002BB5D0A3F13004E4B2092CB4
:101B100005F1010901EB810AEFD92C464D465BE73F
:101B20004F2B3DD040F2E580552B00F09580582B8F
:101B30007BD0502B79D02C46C4E7692B00F0A480D1
:101B40006F2B40F001814FF0080971460DF1170528
:101B500051F8043B01912946B3FBF9FE09FB1E3302
:101B600003F1300CBCF1390FC8BF03F1370C7346D9
:101B700001F801CD002BEFD16D1A0DF10C0901EB2D
:101B8000050E4B4611F801CB03F801CB7145F9D195
:101B90004D4415E0692B00F0B1806F2B40F0D880E8
:101BA0002C46D0E72C460DF11809DEF8003009F874
:101BB0000C3D0EF1040301934FF020080DF10D05CB
:101BC000A5EB090505F1FF3A551B37D488BBC5F1D4
:101BD000000B7DB399F800102D2943D0336841469E
:101BE000DB68304698471BF1010BF7D1BAF1000FC3
:101BF0002F44FFF6C7AE5546336819F8011BDB6862
:101C0000013D304698476B1CF6D101375744BBF174
:101C1000000F3FF4B7AE5D4633684146DB6830469F
:101C20009847013DF8D15F44ACE62C464FF01009CF
:101C30008BE7AB46BAF1000FDDDAE8E728B9BAF175
:101C4000000FFFF69FAE8346D5E7BAF1000FFFF60F
:101C500099AE4FF0000BCEE72C464FF00A0974E71F
:101C600008080020B8F1300FB8D133683D48DB6870
:101C70009847013709F101090AF1FF3AAEE7442B11
:101C800002D0492B7FF41EAF7346192D53F804ABD5
:101C9000019336D9BAF1000F41DBBCF1000F49D0F6
:101CA0002B238DF80C300DF10D050DF10C0905F10C
:101CB0000B0C9646614652462B4BA3FB02A3DB0856
:101CC00003EB830B9A46A2EB4B033033524601F8E9
:101CD000013D002AF0D1ACEB010A72466B1E01EB0C
:101CE0000A0E11F801CB03F801CF7145F9D1554423
:101CF00066E7442B02D0492B7FF41DAF2C460EF132
:101D00000403DEF800A00193C4E73BB30139A94600
:101D10007FF58DAE94E6DDF804E0002257E64FF043
:101D20002D038DF80C30CAF1000A0DF10D050DF1EF
:101D30000C09BCE70DF10C094D46B8E761B9DFF8B5
:101D40002C9047F6FE7172E6642B7FF4BBAE9BE7E6
:101D5000642BD3D02C46B5E6044DD7E7A9464FF007
:101D600020082DE708080020CDCCCCCC8444000806
:101D70002DE9F04184B0836C0322027178225A600D
:101D80001A6842F003021A605A68044642F48072EC
:101D90005A6002AF6420FFF703F8A26C00214FF4F1
:101DA00080639160D360536B1806FCD580239363E6
:101DB00008213B1D4FF4D5722046FEF789FD98B9E6
:101DC0007B680122C3F303239342226300F0BE80A9
:101DD000A36C002202215A6001251A602171284655
:101DE0000837BD46BDE8F0813B1D00223721204663
:101DF000FEF76EFD08BB7968B94AA36C0A40002A59
:101E000000F0E88002222263DFF8F482642540F2C9
:101E10004146C3F80880DE60596B11F04502FBD0E3
:101E20009A634A070BD45A69002A0EDB013DD0D0D1
:101E30006420FEF7B5FFA36CEBE7A36CE2E704F1C7
:101E40003400FEF705FDA36CC3E7520003D5236BF6
:101E500043F01003236304F108030022022120460B
:101E6000FEF716FD0028B3D1024604F13803032122
:101E70002046FEF72DFD0028AAD104F1180843469C
:101E8000A26B09212046FEF703FD0028A0D13B46A6
:101E9000A26B07212046FEF71BFD002898D1236B7B
:101EA00003F00F03022B00F0A180636A6D469B0FC5
:101EB00090B002AE40F0FA80AD46A16C236B4A6848
:101EC00003F00F0322F0FF02022B4A6000F0BE80F5
:101ED0004046FEF793FDA0623B464FF4007210218E
:101EE0002046FEF7F5FC054600287FF471AF3B68FD
:101EF0007B4E33427FF46CAF236B03F00F03012B57
:101F00007BD9022B7FF464AFE36A1B78012B00F0CE
:101F1000BE8018D3022B40F0C380A16C714A4B687D
:101F200023F4C05343F480534B603B1D06212046ED
:101F3000FEF7CEFC00287FF44BAF7A68684B134065
:101F4000002B7FF445AF0523237148E702463B1D74
:101F500037212046FEF7BCFC00287FF439AF7A68B1
:101F60005F4B1340002B7FF433AF236B03F00F0361
:101F7000022B00F099805C4E5C4A012B08BF16468C
:101F8000DFF85C8164253B1D002237212046FEF7E7
:101F90009FFC00287FF41CAF7A68A36C12EA080F3C
:101FA0007FF417AF40F269429E60DA60596B11F01E
:101FB0004502FBD048079A633FF541AF5A697A6002
:101FC000002AFFF642AF013D3FF403AF6420FEF765
:101FD000E7FED8E74FF4806122639A60D9605A6BBC
:101FE0001106FCD580229A633F4EC9E73B1D404A4B
:101FF00006212046FEF76CFC5FE7E36A1A78002AA8
:10200000A1D0012AA36C7FF4E4AE5968A26B21F43D
:10201000C05141F40061596020463B1D3721FEF755
:1020200057FC00287FF4D4AE7B6833427FF4D0AEF7
:102030003B1D022206212046FEF74AFC00287FF4C1
:10204000C7AE7B6833423FF47EAFC1E6636A002BC4
:10205000BFF63EAF002300934FF40072082304F153
:102060004C012046FFF734FC00287FF4B1AE94F811
:10207000223194F8230194F8201194F821211B04B3
:1020800003EB00630B4403EB0223A36224E7A16C80
:10209000184A4B6823F4C05343F400634B6044E791
:1020A000A36C154A5B6840E7A36CADE6009006237D
:1020B000402231462046FFF70BFC70B9737B9B072B
:1020C0007FF5FAAE0D4B00934022062331462046A1
:1020D000FFF7FEFB00283FF4EFAEAD46A36C78E6B9
:1020E00008E0FFFD0002B703000010800080FF50F1
:1020F0000001B9030001B7030000B703F1FFFF803F
:102100000080FFC000000000000000000000000090
:102110002DE9F04F85B0CDE90232D0F81C904FF098
:10212000200A8AF311883AB304460F4616464FF048
:10213000000BA2689642D4E904208CBFA5683546FE
:10214000A2EB0008A84540D82BD32A463946FEF713
:10215000CDF8E2686261A268521BA2609DB1B9F13C
:10216000000F01D02046C8478BF31188761B2F44FF
:102170008AF31188002EDCD10398002383F31188A1
:1021800005B0BDE8F08F02992046FEF779FD0028E2
:10219000CFD0039B981B002383F3118805B0BDE8C3
:1021A000F08FA5EB0803424639460193FEF79EF8EF
:1021B00007EB0801DDF80480E0684246FEF796F878
:1021C000E2684346D3186361C5E72A463946FEF7FD
:1021D0008DF862692A446261BDE700BF000000001B
:1021E0003030FFF795BF00BF000000000000000086
:1021F00030304FF0FF33FFF78BBF00BF000000000F
:102200002DE9F04F85B0CDE90232D0F81C904FF0A7
:10221000200A8AF311883AB304460F4616464FF057
:10222000000BA268A169964222698CBFA568354659
:10223000A2EB0108A84540D82BD32A463846FEF722
:1022400055F8E268A261A268521BA2609DB1B9F183
:10225000000F01D02046C8478BF31188761B2F440E
:102260008AF31188002EDCD10398002383F31188B0
:1022700005B0BDE8F08F02992046FEF701FD002869
:10228000CFD0039B981B002383F3118805B0BDE8D2
:10229000F08FA5EB0803424638460193FEF726F877
:1022A00007EB0800DDF80480E1684246FEF71EF8FF
:1022B000E2684346D318A361C5E72A463846FEF7CD
:1022C00015F8A2692A44A261BDE700BF0000000022
:1022D0000C30FFF795BF00BF0000000000000000B9
:1022E0000C304FF0FF33FFF78BBF00BF0000000042
:1022F000EFF30983203383F30988002383F31188E4
:10230000704700BF00000000000000000000000057
:1023100038B52022034682F31188104A9469A06AD6
:10232000636204F12805A84206D00368A362FEF7A1
:1023300037FAA06AA842F8D194F8223043B994F849
:1023400021309B0704D1D4E904231A612269536127
:102350000F20BDE83840FEF773BB00BF040D00201E
:102360000E4A1068036830B4012194695A60002550
:1023700080F82010A1681360906184F8205000E07C
:102380001B689A689142FBD35A682146C4E900321F
:1023900014605C6030BCFDF793BF00BF040D0020EB
:1023A00070B51C4D2023AE6983F311880468C3689F
:1023B000B363844227D0F16B4BB11A68934203D0C8
:1023C0009268914238BF1146DB68002BF5D1226834
:1023D000B160A16B026003465060C3E90241204630
:1023E000A363FEF7DDF92A68AB6992689B689A429D
:1023F00003D8002383F3118870BDFFF7B1FF0023DA
:1024000083F3118870BD0023A360002383F3118838
:1024100070BD00BF040D002000000000000000009F
:10242000F8B5C61D0446F608202383F31188314809
:10243000FEF71EFB002383F31188DFF8C0C0DCF831
:10244000002002F10F0323F007031F4602F1080EDC
:10245000083B62B15068411C02EBC101CD1B8B42AD
:102460004FEAE50501D2AE4212D99446E7E7224D84
:1024700005F10C00FFF794FF2F683FB10822F00030
:102480001146B847074608B140E902543846F8BD3E
:102490009A4218D38642136827D0013602EBC60051
:1024A00000F10805491BC91042F8363077464160F3
:1024B0001346CCF800001048C3E900040C30FFF7C5
:1024C0006FFF3846F8BDA3EB0E0E4FEAEE01AE42A9
:1024D0005160F0D2701C03EBC001F643354416681E
:1024E0004D6043F830601160E5E7CCF80030774686
:1024F0001346E0E7DC100020D0100020D4100020AC
:10250000F8B550E902730733DB0840F8043C3D1D81
:102510000646A0F108040C37202383F311883846BF
:10252000FEF7A6FA002383F311882B46AB421A6804
:1025300001D09C4202D91AB1944201D31346F5E767
:1025400056F8041C46F8082C1C604A1C56F8080C67
:1025500004EBC20181420AD059684A1C03EBC20253
:10256000944212D03846BDE8F840FFF719BF4968D9
:1025700054F8320046F8080C0A4446F8042C59680E
:102580004A1C03EBC2029442ECD156E9020201322A
:102590001144186059603846BDE8F840FFF700BFA5
:1025A0002DE9F04F05692035B5F5001F85B00446CB
:1025B0001BD28369002B00F07481C5F30807D0F8A3
:1025C000008047B108F134063E44E66125610020F1
:1025D00005B0BDE8F08F0E4641690133836151B902
:1025E000B8F80830B3EB551FECD800230420A361E2
:1025F00005B0BDE8F08FB8F80A30013B13EA552367
:10260000E0D14046FEF71CFE012881466FD9B0F1AB
:10261000FF3F00F08E80D8F81830834240F28B8064
:10262000821E009208F134060099C4F81490023B0F
:102630008B420A4685BFB8F80A30D8F82C20002310
:1026400001FB0323A361BFE751463046FEF7F8FDC7
:10265000012881464BD9B0F1FF3F6AD0B369984257
:10266000C0F086807269002A7BD00AF101094B45CF
:1026700098BF4FF0020949462068FEF7E1FD0128A6
:1026800035D0431C55D0002800F00281D6F810B098
:10269000B369BBF1010F40F202819B4528BFD346CD
:1026A000D94606E0012822D0013042D0CB4558D08F
:1026B000B36909F10109994504D3BBF1010F50D960
:1026C0004FF0020949462068FEF7BAFD0028E9D11B
:1026D000B9F1010F0BD9B369994508D24FF0FF3218
:1026E00049463046FEF774FE18B1012821D0022079
:1026F0006EE7BAF1000F0CD0BAF1010FF7D9B36948
:102700009A45F4D251464A463046FEF761FE00280B
:10271000EBD1D6E90532023A9342C6F8109001D8BF
:10272000013B73613379B9F1FF3F43F0010333712A
:102730001ED101204CE7002E3FF457AFD4F814A06F
:102740002668BAF1000F7FF47FAFD6F810B0BBF166
:10275000000F08D0B3699B4528BF4FF0010B736988
:1027600023B9072034E74FF0010BF8E7B36997E787
:1027700098F80330002B40F08180D8F81830A9F188
:102780000202023B9A4200927FD2B8F80A20D8F89F
:102790002C30009901FB02330193019BC8F83030C3
:1027A00008F13406334608F50D71002203F8012BB9
:1027B0008B42FBD1B8F80A304FEA432ABAF5004FF2
:1027C00059D2BAF5007F05D83DE04FEA5A0ABAF56A
:1027D000007F36D95046FFF723FE0028F5D0034688
:1027E000029000EB0A01002203F8012B8B42FBD17F
:1027F000B8F80A304FEA5A2A9B46BBB103974FF00C
:10280000000B019F0194029C04E0B8F80A30D34405
:102810009B4509D2534607EB0B02214698F801006D
:10282000FEF7F6FB0028F0D0039F019C0298FFF70B
:1028300067FEB8F80A305B457FF47BAFD8F81830F4
:10284000F2E6B8F80A30002BF8D04FF0000BDDF8B4
:1028500004A003E00BF1010B9B45ECD201230AEB32
:102860000B02314698F80100FEF7D2FBB8F80A30A7
:102870000028EFD0DFE74FF4004AABE74046FEF711
:10288000DFFB00283FF479AF53E70023019384E78F
:10289000B9F1000F7FF41CAFD346B36900E7D3460C
:1028A000FEE6042094E600BF0000000000000000E7
:1028B0002DE9F04F002189B005460768FEF738FD85
:1028C0008246002845D14FF0FF334FF0FF0BEB62FB
:1028D0009846D9460BE00F2B3FD0C5F82C804FF01F
:1028E000FF0900212846FFF75BFE00284CD1A969AB
:1028F0003B6B994204D03846FEF78AFC002843D14E
:10290000EC692678002E5BD0E27AE52E02F03F03D8
:10291000AB71E2D01207DED40F2B1ED0B9F1000F3D
:1029200037D095F82B30DB07D7D42046294610F84E
:102930000B3B11F8202F01349B1A002BCDD114F83A
:10294000013B11F8012F8442A3EB0203F5D1002BC8
:10295000C3D1504609B0BDE8F08F95F82B305B0627
:10296000BFD4700627D52B6994F80DB0EB6206F042
:10297000BF06637B5B4529D04FF0FF090021284645
:10298000FFF70EFE0028B2D08246504609B0BDE8DF
:10299000F08F04F10B00214611F8012B4FEAC91307
:1029A00043EA590952FA89F981425FFA89F9F3D168
:1029B000CB45B6D1CDE7B145DBD04FF0FF09DDE720
:1029C0004FF0040A504609B0BDE8F08FE27EA37EC6
:1029D00053EA0223D0D12278069202F03F02013A54
:1029E000F968274B059102EB4200012102EB8002BE
:1029F000CDE901B79946CDE903A5059F0796254680
:102A00000B46144611E0FE2C1DD8FDF779FD8346D8
:102A100037F81400FDF774FD584514D13346544679
:102A2000184A4A4516D019F8011F6E5C681804F15F
:102A3000010A407846EA00263046002BE3D14FF6E3
:102A4000FF729642ECD0DDE901B7DDE903A54FF056
:102A5000FF0946E79C46069B079E5906DDE901B73C
:102A6000DDE903A507D5BCF1000F04D0059B33F8C1
:102A70001430002B80D1013E5FFA86F931E700BFA8
:102A8000F43F0008004000080000000000000000C3
:102A9000264B27481A696FEAC2526FEAD2522DE9D3
:102AA00080481A611A69C2F308021A614FF0FF34B4
:102AB0001A695A695C61002259695A615969196A2F
:102AC00061F080511962196A01F080511962196A26
:102AD000596A5C62596A5A62596A196C41F08051AC
:102AE0001964196E41F080511966196E016841F43C
:102AF00080710160196F01F44071B1F5007F97B0EA
:102B000003D04FF4803119671A67094C094962688C
:102B1000094B0A4D22F40072002062600F460860E3
:102B20000A46804603F1C0010CE000BF00380240B5
:102B300000700040EC1000201040000810600240BF
:102B400053F80C5CC5F800800C338B42C2F804804B
:102B500002F10802F4D1D34EDFF894C3D24AD34D28
:102B6000D34C4FF0FF3960234020CCF808904FF051
:102B7000800ACCF80C90C2F80890C2F80C9086F845
:102B800006334FF48072C6F8800130604FF4007055
:102B900086F807332946C6F880A1C6F800A086F853
:102BA0000833C6F88021326086F80933C6F8800100
:102BB00030604FF4806086F80A33C6F880013060D8
:102BC0004FF4000086F81733C6F88001306086F8AD
:102BD0002833C6F88421726041F8044B05F10C02D9
:102BE0004FF0010B05F15403C5E90322B14A6960B6
:102BF00005F174001021AB61C5F8148085F808B0A8
:102C0000C5E9083305F16403EA6405F13002A963FC
:102C10002864A949EB61EB63C5E91133C5E90C22CE
:102C2000C5E90A852D656967FDF76AFEA34BA449CE
:102C30001A6CA44CA448DFF8BCC242EA0B021A6426
:102C40001A6E42EA0B021A661B6E8B689F4A64601A
:102C500043EA0B038B604FF0804342F2CF0199624D
:102C6000C3F82C904FF08051C4F80880C3F8188046
:102C70002461C3F834806461C3F80C80C4F82490E4
:102C8000C3F80480C4F82880C3F814B0C2F80480E4
:102C9000C3F800B004F11C0386F81CA3C6F8801129
:102CA000E36131608A49116023628A498A4BC0F826
:102CB00000C002F10C06416000200021C2F808802B
:102CC0002460D660CDE90E0103F1100003F13C0C45
:102CD000186103F140001421CDE90B88C3E90033EA
:102CE000C3E90FC01661CDF82890042603F1240A29
:102CF00003F12809C2F814804FF01C0E774A99613D
:102D000003F14401C4F87480CDF83480C3F808801E
:102D1000C3F81480C3F82C80C3F824A0C3F828900B
:102D2000C3F830E05964DE615E631A629A630AA8F0
:102D3000FDF7F6FC0AA8FDF7CBFC013EF7D1684A87
:102D4000D4F814C00A9B63678020012102F12C0390
:102D5000DFF8A481A06302F1280EE06684F85160D8
:102D6000C4E91966C4E9104C84F85210C4F84880CC
:102D70002020CCF81020C4E9052284F85010E66425
:102D8000C4E916E3236680F3118862B6554BDFF879
:102D90006CC1D3F80CE04FF6FF080EEA080E4EEABD
:102DA0000C0CDFF85CE1C3F80CC0DEF80CC0DFF8F7
:102DB00054814CF0807CCEF80CC0D8F800C04FF0A5
:102DC000100E4CEA010CC8F800C083F81FE083F82D
:102DD000220086F3118862B680F31188424B606945
:102DE000C3F89810C3E9326183F8B210DFF818C154
:102DF000DFF81881DFF818E1C3F86CC003F16C014B
:102E0000C3F89C1003F1900C0221A3F8B010C3F892
:102E1000A400C3F8C460C3F88C80C3F8A8E01E67A0
:102E2000C3F8A040C3F8AC30C0F810C0A069C3F824
:102E3000B460D0F808E0C4F814C003F1BC0103F199
:102E4000B808C3E92E81C3F8C010BEF1000F00F02E
:102E5000718183F8B060303A126891680029FBD123
:102E6000C3F890205168C3F89410C1F800C0C2F8AC
:102E700004C0002383F31188202383F311882B7A65
:102E8000012B00F022826B6F184A934200F0C5813B
:102E9000094840F2454240F68B01834208BF0A468A
:102EA00038E000BF00E100E00064024008080020B4
:102EB00034460008F10400080014014000380240C4
:102EC000002004E0040D0020A00E0020D0100020FF
:102ED000B1040008000002207C0D0020A1060008BB
:102EE000340D002000ED00E0C80D0020001001406E
:102EF0000060024070170020C44000080003FA057B
:102F0000F0ED00E0001000E031080008D1020008F8
:102F1000E04300089A604020012142F22C12002474
:102F200018615961DA601C6019685B68FF2202232E
:102F300085F878202B7284F31188FDF771FA8020D0
:102F4000FDF76EFAB648FEF70BFDFDF7D9FC20231E
:102F500083F31188B34DB4492B79B44AE962012B4C
:102F60002A6400F05381AB6C002402221C605C6078
:102F7000DC622A715C6284F31188AA48FEF7F8FECD
:102F8000AB48FEF7EDFCA869696AD5E90732009005
:102F9000A848FEF7E5FCA8686969D5E90332009006
:102FA000A548FEF7DDFCA96AA448C90AFEF7D8FCCB
:102FB000A34BA44A09920AA808930A93FDF708FBB9
:102FC00000280FDBA04D55F8203003B11C70099B81
:102FD0000BB100221A7045F82030002209A908A878
:102FE000FEF7E6FA994B0793012206A907A8FEF718
:102FF000DFFA002800F09681954DAA4600234AF892
:10300000283B6A69EF68DFF85CB2CDF80CA04FF09E
:10301000FF34BA4200F08580D5F8009000230A936F
:10302000B9F1000FF5D099F80030002BF1D0A98844
:10303000B9F806309942ECD199F80100FDF7F8FA99
:10304000C007E6D46B7C002BE3D12B7CD907E0D5FD
:10305000A7EB0208B8F5806FDFF8F8A128BF4FF49E
:103060008068C2F30801002940F08E80B9F80A3068
:10307000013B13EA522340F09E80002A40F0F08189
:10308000A868012840F29F80421C21D0D9F818205E
:10309000A861861E023A964280F09580B9F80A200F
:1030A000D9F82C1002FB0616002E00F08C805FEA87
:1030B00058271E4454D0D9198A4238BFD71A3B46E4
:1030C0003246514699F80100FEF78AF800287DD073
:1030D0004FF001036B746A69EF68BDF82830BA429B
:1030E00040F00681ABB15B48013B411C11FA83F112
:1030F00010F8013B5C4004F00F0388425BF823307A
:1031000083EA141303F00F045BF8244084EA1314D9
:10311000EED113463A461F46BA426FEA04047FF4E2
:103120007BAF21464C48FEF71BFC41F28830FDF78F
:1031300037FEFAE780F82060303A1268916800297B
:10314000FBD15168C0E900210860506001220146AE
:1031500083F8B0204148C4F818C0FDF7B1F888E6FC
:10316000EA6996420CD095F9103099F80100002BCD
:1031700032DB012332463A49FEF732F80028A7D164
:103180006969EE61C1F30801C1F500774745039B0A
:1031900028BF474619443A465046FDF709FA0A9BAC
:1031A0006A693B443A44B8EB0708BA440A936A6137
:1031B0007FF457AF8FE7A869D9F81820861E023A26
:1031C0009642FFF46BAF02236B7484E795F91030DD
:1031D000002B0FDB7F02E2E701232149FDF718FFF7
:1031E00000287FF475AF2B7C03F07F032B7499F8D4
:1031F0000100BEE7E869801B8742EBD90AEB40205B
:103200004FF400721649FDF7D3F9E3E73B6813F476
:10321000006029D06C642368FFDE40F68B0279E6FB
:10322000E843000884080020304500082054A30823
:10323000F4430008084400082C44000850440008E7
:1032400064440008D00A00200008002068440008F8
:10325000A80E0020701100207C440008580E0020A9
:10326000D00E0020E4400008BC4A43F400633B60F9
:10327000136BF86543F480031363116DB84B386624
:1032800041F480011165126D1A6822F01F021A6064
:10329000196811F00101FBD1A86CB24CAF4A4FF094
:1032A0007466266080301960212407215C61986073
:1032B0005961536CAC49696443F400635364536EC1
:1032C00043F400635366536E4DE6A44BA74A596C12
:1032D00041F020015964596E41F0200159665B6E3E
:1032E000C021802382F84713C2F888319360CAE571
:1032F000002B3FF48EAE9E48013B411C11FA83F136
:1033000010F8013B5C4004F00F0388425BF8233067
:1033100083EA141303F00F045BF8244084EA1314C7
:10332000EED176E6069B0A934FF40070FFF778F82B
:103330000746002800F0078106990A9B079AC86093
:103340000393904612F8011B2F29FAD05C29F8D07C
:1033500000210C9198F800201F2A40F2B38003F15D
:103360003402DFF8189205910492DD680022A81E4D
:1033700018F8011B8BB2002B79D1414608782F2811
:10338000884601F10101F9D05C28F7D01F2B8CBFD2
:1033900000230423002A00F0928005EB420102E0A2
:1033A000013A00F08C8031F8020D2028F8D02E2848
:1033B000F6D0BDF8141025F812102888202805EB47
:1033C000420140F0C4802846002430F8026F202ECD
:1033D00004F10104F9D043F0030301E0013A03D002
:1033E00031F8020D2E28F9D14FF0203142F220069B
:1033F00020204FF0000CCDE91211ADF850608DF88F
:10340000520061460826AB463BF814000134002800
:1034100000F0C180202800F01A812E2800F0FA80E8
:10342000B44580F0B180A24200F0F6807F2800F21F
:103430001181DFF84CE15D461EF801AFBAF1000FD3
:1034400000F019815045F7D1AB4643F003035F20EC
:1034500016AD05EB0C0E0CF1010C0EF8100CD3E7B9
:10346000A96928680493FDF7EBFE049B09E67F2B0E
:1034700005D901F10043803B39F81330DBB11F2B34
:103480007FF67BAF2F2B3FF478AF5C2B3FF475AF0B
:103490007F2B05D9FF2A0ED0013220F8023F67E7C3
:1034A000222B08D0334C2A2103E014F8011F0029F5
:1034B000F0D08B42F9D13846FFF722F89CE5002383
:1034C0002B80F8E780230AA88DF85330FDF730FFF2
:1034D0000028F0D19DF95330002BECDB9DF82E3005
:1034E000DC06E8D40699119B0A6B234DC5E9082335
:1034F0000878DC7E9A7E032842EA042205D15C7DAE
:10350000187D40EA042042EA0042587FDC8B1B7F92
:10351000DFF870A0AA6040EA042243EA0222C888C9
:10352000296000230121A880EA600AF50070524654
:103530002982EB616B6102F8013B8242FBD1384684
:10354000FEF7DEFF5DE50C4D05F1280A59E52E2852
:103550004FF000047FF444AF3DE700BF0038024065
:1035600058640240086402408840000800E100E01E
:1035700070110020D5430008A80E00203445000833
:1035800073440008D00E00200B2E47D0A24257D023
:1035900043F0030354D29DF84820E52A45D0082E75
:1035A00004BF8900C9B201F00C020C2A2FD001F02F
:1035B0000302032A2BD09C0707D4C80748BF43F057
:1035C00010034A0748BF43F008030AA88DF8533098
:1035D000FFF76EF99DF8533000287FF46CAF5E075B
:1035E0003FF578AF9DF82E30DD067FF564AF039A86
:1035F0000E9B1178049AC3F3080313440329D87E61
:103600009A7E42EA002214D00C920A9BADE643F067
:103610000203D0E7A2421AD10B2E11D19DF8482007
:10362000E52A43F00303BED10B2605228DF848207E
:10363000B5E7597D1B7D43EA012342EA0342E3E7F4
:103640008900C9B214460B264FF0080CDCE643F0A3
:103650000303D9E643F002034FF0000E5D4639F84C
:103660001EB083451FFA8EFA18D00EF1010EBEF17E
:10367000800FF4D1E8E6A0F1410EBEF1190FAB4680
:1036800001D841F00201A0F1610EBEF1190F3FF621
:10369000DFAE203880B241F00101D9E6AB460AF036
:1036A0007F00034D285C00283FF4CFAEC1E600BF89
:1036B000743F00080000000000000000000000004F
:1036C0007E4A7F481369DFF84CC240F2FF110B437A
:1036D0002DE9F041136113697A4EDFF83CE27A4F2D
:1036E0007A4D7B4C23F4FF7323F0010313611369BC
:1036F000136B0B431363136D0B4313656FF4A841F6
:103700000023D2F85080436081604FF6FF71C0F80B
:103710000CE0DFF808824161DFF804E207624FF451
:103720001077C0F82480C0F800E077604FF0FF30D9
:10373000DFF8F0E1B0604FF08067C6F80CE071612F
:103740004FF0400E3762634FC6F824E0376006F151
:10375000A25606F5443606F5AA766B60A860EE60C0
:103760004FF0C04669612E625B4E6E625B4E2E600A
:103770005B4D6360A060E56040F6FF756561594F81
:10378000594E5A4D236263622560CCF80430584D7F
:10379000CCF8080004F5A054CCF80C30CCF8141088
:1037A000CCF82030CCF82430CCF800E0ACF5D03C9C
:1037B0007B60B860FB6079613B627B623B607360F9
:1037C0004FF08057B060F3607161336273623360B1
:1037D0004FF440466B60A860EB6069612B626B62DE
:1037E0002B606360A060E3606161236263622360B9
:1037F0001764CCF80060136843F00103136013688A
:103800009D07FCD593682D4923F0030393608B68D3
:1038100013F00C03FBD10A68284802F0F9020A6091
:103820008B600B6843F480330B6003689C03FCD50A
:10383000436F224A43F001034367536F9907FCD556
:103840002C4B536013682C4943F0807313604B6812
:103850005A04FCD5194A13689B01FCD5274B28490B
:1038600091601A68274B9A421ED0274B40F205728E
:103870001A60254A136803F00F03052BFAD10F4A8B
:10388000936843F002039360936803F00C03082BE2
:10389000FAD1536C43F480435364536E43F4804332
:1038A0005366536EBDE8F081184A194B12689A426C
:1038B000DBD1154B40F205121A60DAE700380240FE
:1038C000000002400004024000005655000802407B
:1038D000000C024080200800000606000180200243
:1038E00055505500001402400018024000010055D8
:1038F000001C02400854400700700040002004E013
:103900000094883811640020003C024000ED00E083
:1039100041C20F41001002405400014000AA0A00B9
:1039200000AAA02A15455155000000000000000023
:103930002DE9F047684D6E6FD6F80C803368DA05D4
:103940009CB27DD4202383F3118814F02F0F4DD027
:10395000624F4FF0000908E0A106D6F804A01DD47C
:103960003468A4B214F02F0F40D02307F4D014F021
:10397000080F0CBF00208020E10748BF40F0200066
:10398000A20748BF40F04000630748BF40F4807082
:10399000FCF71EFFA106D6F804A0E1D56B6995F8E7
:1039A0007840002B3DD0D5E90832934240D06A6977
:1039B000591C013204EA0A0A6A61296283F800A0EC
:1039C000D5E907329A4201D3AB692B62EB68BB425F
:1039D000C6D01A68EA6018465760C3F82490FCF70E
:1039E000DFFE3468A4B214F02F0FBED1002383F39E
:1039F000118818F0800F01D022062FD418F0400F44
:103A00000BD0630609D5202383F31188D5E9112350
:103A10009A4248D0002383F31188BDE8F047FCF7B1
:103A200017BE0420FCF7D4FED5E908329342BED17C
:103A30006A69002ABBD04FF48060FCF7C9FE8FE7AB
:103A4000202383F311884FF40070FCF7C1FE6FF45C
:103A500080733360002383F3118873E7202383F39B
:103A60001188D5E911239A4229D0AA6B296C581CD8
:103A70000132AA63A86488421F7801D3EB6BAB6460
:103A80002B6B174A934209D0196829634FF0000C39
:103A90004A601846C3F824C0FCF782FE7760002312
:103AA00083F31188AAE7AB6B002BB3D01020FCF78F
:103AB0008FFE4FF6BF7308EA0303F360AAE7AA6B11
:103AC000002AD2D00820FCF783FE4FF67F7308EA65
:103AD0000303F360E3E700BF080800201408002098
:103AE0003808002000000000000000000000000076
:103AF0002DE9F0474FF080473B69FA681340DAB28E
:103B0000D2439B073A6103D4BDE8F047FCF7A0BD60
:103B1000202383F311881E4CA1464FF0000859F86A
:103B20001C3F9A68786AA16A451AAA421CD82026C6
:103B30001868D3F80CA011444845A162A5EB020512
:103B4000C0F80490E061C3F80C8008BFC7F80C808F
:103B500088F311881869D04786F31188E3699A6859
:103B60009542DFD3A16AE3E7E2694A4509D091684B
:103B7000A0624D1B95609B68022B2CBFC0180230C1
:103B80007863002383F31188BDE8F047FCF760BD3C
:103B9000040D0020000000000000000000000000F4
:103BA00008B5202383F3118808490948CB6B00220C
:103BB000C26323B1CA6318465A62FCF7F1FD0023C1
:103BC00083F31188BDE80840FCF742BD840800205B
:103BD000002C014000000000000000000000000078
:103BE000084B09485968C26F890D01F03D0110B5B5
:103BF0008C05DC6012B1D0F880009047BDE8104021
:103C0000FCF726BD00640240EC100020000000001C
:103C1000084B09485968426F090C01F03D0110B585
:103C20000C04DC600AB1806F9047BDE81040FCF7DF
:103C30000FBD00BF00640240EC1000200000000037
:103C4000084B09485968C26E890901F03D0110B559
:103C50008C01DC600AB1006F9047BDE81040FCF7B2
:103C6000F7BC00BF00640240EC1000200000000020
:103C700008B5074B07485968426E01F03D01D9600D
:103C80000AB1806E9047BDE80840FCF7E1BC00BF78
:103C900000640240EC100020000000000000000062
:103CA000084B09481968C26D890D01F03D0110B536
:103CB0008C059C600AB1006E9047BDE81040FCF78F
:103CC000C7BC00BF00640240EC10002000000000F0
:103CD000084B09481968426D090C01F03D0110B507
:103CE0000C049C600AB1806D9047BDE81040FCF761
:103CF000AFBC00BF00640240EC10002000000000D8
:103D0000084B09481968C26C890901F03D0110B5DA
:103D10008C019C600AB1006D9047BDE81040FCF733
:103D200097BC00BF00640240EC10002000000000BF
:103D300008B5074B07481968426C01F03D019960CE
:103D40000AB1806C9047BDE80840FCF781BC00BF19
:103D500000640240EC1000200000000000000000A1
:103D6000084B09485968C26B890D01F03D0110B537
:103D70008C05DC600AB1006C9047BDE81040FCF790
:103D800067BC00BF00600240EC1000200000000093
:103D9000084B09485968426B090C01F03D0110B508
:103DA0000C04DC600AB1806B9047BDE81040FCF762
:103DB0004FBC00BF00600240EC100020000000007B
:103DC000084B09485968C26A890901F03D0110B5DC
:103DD0008C01DC600AB1006B9047BDE81040FCF735
:103DE00037BC00BF00600240EC1000200000000063
:103DF00008B5074B07485968426A01F03D01D96090
:103E00000AB1806A9047BDE80840FCF721BC00BFBA
:103E100000600240EC1000200000000000000000E4
:103E2000084B09481968C269890D01F03D0110B5B8
:103E30008C059C600AB1006A9047BDE81040FCF711
:103E400007BC00BF00600240EC1000200000000032
:103E5000084B094819684269090C01F03D0110B589
:103E60000C049C600AB180699047BDE81040FCF7E3
:103E7000EFBB00BF00600240EC100020000000001B
:103E8000084B09481968C268890901F03D0110B55D
:103E90008C019C600AB100699047BDE81040FCF7B6
:103EA000D7BB00BF00600240EC1000200000000003
:103EB00008B5074B07481968426801F03D01996051
:103EC0000AB180689047BDE80840FCF7C1BB00BF5D
:103ED00000600240EC100020000000000000000024
:103EE000F0B4144E144D154C154B164906F1700CD8
:103EF00000279C4211D904391A4651F8040F42F8A0
:103F0000040B9442F9D8DA43144424F00304043433
:103F100023449D4203D943F8047B9D42FBD8664568
:103F200005D0D6E90413D6E906451036E1E7F0BC22
:103F3000704700BF8C4400087017002070170020E5
:103F4000701700205C460008000000000000000020
:103F5000FEE700BF000000000000000000000000BD
:103F6000704700BF000000000000000000000000DB
:043F7000704700BFD7
:103F740043554541414141434545454949494141ED
:103F84004592924F4F4F5555594F554F9C4F9E9FB9
:103F940041494F55A5A5A6A7A8A9AAABACADAEAFFC
:103FA400B0B1B2B3B4414141B8B9BABBBCBDBEBFF4
:103FB400C0C1C2C3C4C54141C8C9CACBCCCDCECF90
:103FC400D1D145454549494949D9DADBDCDD49DFE9
:103FD4004FE14F4F4F4FE6E8E85555555959EEEF2D
:103FE400F0F1F2F3F4F5F6F7F8F9FAFBFCFDFEFF55
:103FF40001030507090E10121416181C1E000000F8
:1040040010600240086002400000000B286002407B
:10401400086002400006010C406002400860024053
:104024000010020D58600240086002400016030EA2
:10403400706002400C6002400000040F886002407F
:104044000C60024000060510A06002400C600240B3
:1040540000100611B86002400C6002400016072FE1
:1040640010640240086402400000083828640240DA
:1040740008640240000609394064024008640240B2
:1040840000100A3A586402400864024000160B3BD0
:10409400706402400C64024000000C3C88640240DE
:1040A4000C64024000060D44A06402400C6402400B
:1040B40000100E45B86402400C64024000160F461E
:1040C4006D61696E00164130040444080C10141824
:1040D4001C2021220000000046415433320000001D
:1040E400000000006410B71DC8206E3BAC30D92618
:1040F4009041DC76F4516B6B5861B24D3C710550C4
:104104002083B8ED44930FF0E8A3D6D68CB361CBEB
:10411400B0C2649BD4D2D38678E20AA01CF2BDBD9F
:1041240061001A03E0001703F8000703FF00010011
:1041340078010001300132010601390110014A0100
:104144002E017901060180014D00430281018201A3
:1041540082018401840186018701870189018A0122
:104164008B018B018D018E018F01900191019101D1
:1041740093019401F60196019701980198013D027B
:104184009B019C019D0120029F01A001A001A201AD
:10419400A201A401A401A601A701A701A901AA01E2
:1041A400AB01AC01AC01AE01AF01AF01B101B20191
:1041B400B301B301B501B501B701B801B801BA0142
:1041C400BB01BC01BC01BE01F701C001C101C201B8
:1041D400C301C401C501C401C701C801C701CA01A3
:1041E400CB01CA01CD011001DD0101008E01DE0108
:1041F4001201F3010300F101F401F401F8012801B3
:10420400220212013A020900652C3B023B023D02E4
:10421400662C3F0240024102410246020A01530257
:10422400400081018601550289018A0158028F01EB
:104234005A0290015C025D025E025F029301610218
:1042440062029401640265026602670297019601A4
:104254006A02622C6C026D026E029C017002710291
:104264009D01730274029F0176027702780279023B
:104274007A027B027C02642C7E027F02A601810208
:104284008202A9018402850286028702AE014402E9
:10429400B101B20145028D028E028F029002910299
:1042A400B7017B030300FD03FE03FF03AC0304001B
:1042B4008603880389038A03B1031103C20302003E
:1042C400A303A303C4030803CC0303008C038E03DA
:1042D4008F03D8031801F2030A00F903F303F4036C
:1042E400F503F603F703F703F903FA03FA033004BB
:1042F400200350041007600422018A043601C1041B
:104304000E01CF040100C004D00444016105260459
:10431400000000007D1D0100632C001E9601A01EFC
:104324005A01001F0806101F0606201F0806301F2A
:104334000806401F0606511F0700591F521F5B1F26
:10434400541F5D1F561F5F1F601F0806701F0E005D
:10435400BA1FBB1FC81FC91FCA1FCB1FDA1FDB1F11
:10436400F81FF91FEA1FEB1FFA1FFB1F801F080627
:10437400901F0806A01F0806B01F0400B81FB91F2D
:10438400B21FBC1FCC1F0100C31FD01F0206E01FB9
:104394000206E51F0100EC1FF31F0100FC1F4E2164
:1043A4000100322170211002842101008321D024D4
:1043B4001A05302C2F04602C0201672C0601752C81
:1043C4000201802C6401002D260841FF1A0300001D
:1043D400222A3A3C3E3F7C7F0000000069646C6501
:1043E400000000004269736D696C6C61680D0A001D
:1043F4004F4B0D0A0D0A4361726420496E666F0DBE
:104404000A0000004353442020202020203A202585
:104414003038582025385820253038582025303851
:1044240058200D0A00000000434944202020202089
:10443400203A20253038582025385820253038583F
:104444002025303858200D0A0000000043617061B7
:1044540063697479203A2025444D420D0A00000016
:104464002F000000615858585858582E42494E00A1
:104474002B2C3B3D5B5D0000307825580D0A000075
:10448400286E756C6C2900005C46000870170020CB
:1044940070170020701700205C4600080000002000
:1044A40000000020000000205C46000800C001203D
:1044B40000C0012000C001205C460008000000008C
:1044C40000000000000000005C460008000000102E
:1044D40000000010000000105C460008004002408C
:1044E40000400240004002405C460008000000001A
:1044F40000000000000000005C460008000000000E
:104504000000000000000000000000004108000856
:1045140021060008711D0008010E00083111000871
:10452400610F0008F1090008D1090008010000002A
:10453400C700FC00E900E200E400E000E500E70059
:10454400EA00EB00E800EF00EE00EC00C400C50058
:10455400C900E600C600F400F600F200FB00F90012
:10456400FF00D600DC00F800A300D800D7009201B9
:10457400E100ED00F300FA00F100D100AA00BA0056
:10458400BF00AE00AC00BD00BC00A100AB00BB008E
:1045940091259225932502252425C100C200C0003F
:1045A400A9006325512557255D25A200A5001025E6
:1045B400142534252C251C2500253C25E300C300A7
:1045C4005A25542569256625602550256C25A400A7
:1045D400F000D000CA00CB00C8003101CD00CE00ED
:1045E400CF0018250C2588258425A600CC0080251D
:1045F400D300DF00D400D200F500D500B500FE00E2
:10460400DE00DA00DB00D900FD00DD00AF00B400FD
:10461400AD00B1001720BE00B600A700F700B80037
:10462400B000A800B700B900B300B200A025A000F4
:1046340000000000F1210008E1220008110D00082B
:10464400910D0008010D0008810D0008E12100080A
:08465400D1220008C109000891
:04000005080002B934
:00000001FF
